{
  "_format": "hh-sol-artifact-1",
  "contractName": "Puja",
  "sourceName": "contracts/Puja.sol",
  "abi": [
    {
      "inputs": [],
      "name": "Puja__NotEnoughETHEntered",
      "type": "error"
    },
    {
      "anonymous": false,
      "inputs": [
        {
          "indexed": true,
          "internalType": "address",
          "name": "_ganador",
          "type": "address"
        }
      ],
      "name": "GanadorEstablecido",
      "type": "event"
    },
    {
      "anonymous": false,
      "inputs": [
        {
          "indexed": true,
          "internalType": "address",
          "name": "pujador",
          "type": "address"
        },
        {
          "indexed": false,
          "internalType": "uint256",
          "name": "idProducto",
          "type": "uint256"
        },
        {
          "indexed": false,
          "internalType": "uint256",
          "name": "monto",
          "type": "uint256"
        },
        {
          "indexed": false,
          "internalType": "uint256",
          "name": "montoEUR",
          "type": "uint256"
        }
      ],
      "name": "PujaRealizada",
      "type": "event"
    },
    {
      "inputs": [],
      "name": "establecerGanadorPuja",
      "outputs": [],
      "stateMutability": "nonpayable",
      "type": "function"
    },
    {
      "inputs": [],
      "name": "getGanador",
      "outputs": [
        {
          "internalType": "address",
          "name": "",
          "type": "address"
        }
      ],
      "stateMutability": "view",
      "type": "function"
    },
    {
      "inputs": [],
      "name": "getPrecioTramitePuja",
      "outputs": [
        {
          "internalType": "uint256",
          "name": "",
          "type": "uint256"
        }
      ],
      "stateMutability": "view",
      "type": "function"
    },
    {
      "inputs": [
        {
          "internalType": "uint256",
          "name": "idProducto",
          "type": "uint256"
        },
        {
          "internalType": "uint256",
          "name": "monto",
          "type": "uint256"
        },
        {
          "internalType": "uint256",
          "name": "montoEUR",
          "type": "uint256"
        },
        {
          "internalType": "uint256",
          "name": "saldo",
          "type": "uint256"
        }
      ],
      "name": "pujarPorProducto",
      "outputs": [],
      "stateMutability": "payable",
      "type": "function"
    }
  ],
  "bytecode": "0x60806040526509184e72a00060005534801561001a57600080fd5b506108d68061002a6000396000f3fe60806040526004361061003f5760003560e01c8063551a20f71461004457806358dcce0814610060578063af1945231461008b578063fa03829b146100a2575b600080fd5b61005e6004803603810190610059919061053a565b6100cd565b005b34801561006c57600080fd5b5061007561028d565b60405161008291906105b0565b60405180910390f35b34801561009757600080fd5b506100a0610296565b005b3480156100ae57600080fd5b506100b761044c565b6040516100c4919061060c565b60405180910390f35b600054811015610109576040517f3e52788400000000000000000000000000000000000000000000000000000000815260040160405180910390fd5b600360405180608001604052803373ffffffffffffffffffffffffffffffffffffffff16815260200186815260200185815260200184815250908060018154018082558091505060019003906000526020600020906004020160009091909190915060008201518160000160006101000a81548173ffffffffffffffffffffffffffffffffffffffff021916908373ffffffffffffffffffffffffffffffffffffffff16021790555060208201518160010155604082015181600201556060820151816003015550506001339080600181540180825580915050600190039060005260206000200160009091909190916101000a81548173ffffffffffffffffffffffffffffffffffffffff021916908373ffffffffffffffffffffffffffffffffffffffff1602179055503373ffffffffffffffffffffffffffffffffffffffff167f260e121222c89769192ef6d263917101890edb3eec5957d56caca78526ca138185858560405161027f93929190610627565b60405180910390a250505050565b60008054905090565b600260009054906101000a900460ff16156102e6576040517f08c379a00000000000000000000000000000000000000000000000000000000081526004016102dd906106bb565b60405180910390fd5b60006001805490501161032e576040517f08c379a000000000000000000000000000000000000000000000000000000000815260040161032590610727565b60405180910390fd5b600060018054905061033e6104c5565b6103489190610776565b90506001818154811061035e5761035d6107a7565b5b9060005260206000200160009054906101000a900473ffffffffffffffffffffffffffffffffffffffff16600260016101000a81548173ffffffffffffffffffffffffffffffffffffffff021916908373ffffffffffffffffffffffffffffffffffffffff1602179055506001600260006101000a81548160ff021916908315150217905550600260019054906101000a900473ffffffffffffffffffffffffffffffffffffffff1673ffffffffffffffffffffffffffffffffffffffff167ff2706a03dcdb741e4974f6193ca3818ef319ab7abb3288f47a3557fe026c370660405160405180910390a250565b6000600260009054906101000a900460ff1661049d576040517f08c379a000000000000000000000000000000000000000000000000000000000815260040161049490610822565b60405180910390fd5b600260019054906101000a900473ffffffffffffffffffffffffffffffffffffffff16905090565b600042446001805490506040516020016104e193929190610863565b6040516020818303038152906040528051906020012060001c905090565b600080fd5b6000819050919050565b61051781610504565b811461052257600080fd5b50565b6000813590506105348161050e565b92915050565b60008060008060808587031215610554576105536104ff565b5b600061056287828801610525565b945050602061057387828801610525565b935050604061058487828801610525565b925050606061059587828801610525565b91505092959194509250565b6105aa81610504565b82525050565b60006020820190506105c560008301846105a1565b92915050565b600073ffffffffffffffffffffffffffffffffffffffff82169050919050565b60006105f6826105cb565b9050919050565b610606816105eb565b82525050565b600060208201905061062160008301846105fd565b92915050565b600060608201905061063c60008301866105a1565b61064960208301856105a1565b61065660408301846105a1565b949350505050565b600082825260208201905092915050565b7f4c612070756a61207961206861207369646f2066696e616c697a616461000000600082015250565b60006106a5601d8361065e565b91506106b08261066f565b602082019050919050565b600060208201905081810360008301526106d481610698565b9050919050565b7f4e6f206861792070756a61646f72657300000000000000000000000000000000600082015250565b600061071160108361065e565b915061071c826106db565b602082019050919050565b6000602082019050818103600083015261074081610704565b9050919050565b7f4e487b7100000000000000000000000000000000000000000000000000000000600052601260045260246000fd5b600061078182610504565b915061078c83610504565b92508261079c5761079b610747565b5b828206905092915050565b7f4e487b7100000000000000000000000000000000000000000000000000000000600052603260045260246000fd5b7f4c612070756a61206e6f2068612066696e616c697a61646f0000000000000000600082015250565b600061080c60188361065e565b9150610817826107d6565b602082019050919050565b6000602082019050818103600083015261083b816107ff565b9050919050565b6000819050919050565b61085d61085882610504565b610842565b82525050565b600061086f828661084c565b60208201915061087f828561084c565b60208201915061088f828461084c565b60208201915081905094935050505056fea264697066735822122060c28b242139e18bf93d6a523ea0288d98c65fbf7c36e5f48ddc8ca47a5268cf64736f6c63430008130033",
  "linkReferences": {},
  "deployedLinkReferences": {}
}